:020000040800F2
:10000000C00600204501000833230008631B0008D8
:1000100031230008F1010008392A0008000000001F
:100020000000000000000000000000005701000870
:10003000F3010008000000005B01000881260008B1
:100040005F0100085F0100085F0100085F01000810
:100050005F0100085F0100085F0100085F01000800
:100060005F0100085F0100085F0100085F010008F0
:100070005F0100085F0100085F0100085F010008E0
:100080005F0100085F0100085F0100085F010008D0
:100090005F0100085F0100085F0100085F010008C0
:1000A0005F0100085F0100085F0100085F010008B0
:1000B0005F0100085F010008352700085F010008A4
:1000C0005F0100085F0100085F0100085F01000890
:1000D0005F0100085F0100085F0100085F01000880
:1000E0005F0100085F0100085F0100085F01000870
:1000F0005F0100085F0100085F0100085F01000860
:100100005F0100085F010008592700085F0100082F
:100110005F0100085F010008992700080128000816
:100120005F0100085F0100085F0100085F0100082F
:10013000DFF80CD000F04AF8004800470130000812
:10014000C00600200648804706480047FEE7FEE755
:10015000FEE7FEE7FEE7FEE7FEE7FEE7FEE7FEE777
:10016000ED26000831010008D2B201E000F8012BB1
:10017000491EFBD270470022F6E710B513460A4627
:1001800004461946FFF7F0FF204610BD034611F85C
:10019000012B00F8012B002AF9D11846704730B521
:1001A0000B46014600202022012409E021FA02F535
:1001B0009D4205D303FA02F5491B04FA02F52844CF
:1001C000151EA2F10102F1DC30BD0000064C074D06
:1001D00006E0E06840F0010394E807009847103417
:1001E000AC42F6D3FFF7A8FFDC3C0008FC3C00085B
:1001F000FEE7704770B5044600F01CF90546601C28
:1002000002D004480078044400F014F9401BA042D6
:10021000FAD370BD280000202DE9F84FDFF8C8910F
:10022000002409F1040A0AF1040B23460F270BF1FD
:10023000040ED1E00125A54006EA0502AA4276D1C6
:10024000DFF8A8C14E68A6EB0C0866452BD00DDC84
:10025000032E34D005DC36B3012E19D0022E2FD157
:100260001BE0112E16D0122E2AD119E0B8F5881FE6
:1002700019D006DCB8F5803F15D0B8F5801F1FD126
:1002800011E0B8F5001F0ED0B8F5041F18D10AE030
:10029000CB6815E0CB681B1D12E0CB6808330FE07C
:1002A000CB680C330CE08B682BB1012B4FF00803AB
:1002B00003D0456104E0042302E0056100E000236F
:1002C000FF2A01D8064601E000F104064FEA840542
:1002D00001D9A5F12005D6F8008007FA05FC28EA27
:1002E0000C0803FA05F548EA0508C6F800804D68D1
:1002F000ED0070D53E4DAE6946F00106AE61AD69C8
:1003000024F0030605F0010500953A4D06EB050CB7
:10031000DCF80850A607360F07FA06F825EA0805A4
:10032000DFF8D480404503D14FF0000825E052E0CB
:10033000DFF8C880404502D14FF001081DE0DFF82A
:10034000C080404502D14FF0020816E0DFF8B480CB
:10035000404502D14FF003080FE0DFF8AC80404584
:1003600002D14FF0040808E0DFF8A080404502D138
:100370004FF0050801E04FF0060808FA06F848EAD1
:100380000508CCF808804D68D9F80060ED034D46AB
:1003900001D5164300E096432E604D68DAF8006000
:1003A000AD03554601D5164300E096432E604D68D7
:1003B000DBF80060ED025D4601D5164300E0964390
:1003C0002E604D68DEF80060AD02754601D516431B
:1003D00000E096432E60641C0A681646E2407FF4F3
:1003E00029AFBDE8F88F00000004014000001110A3
:1003F000001002400000014000080140000C0140D4
:10040000001001400014014000180140001C014090
:100410008068084000D001207047C2680A4201D0BD
:1004200041617047016170470AB101617047090479
:10043000FBE70000014880687047000028000020AA
:1004400070B504001BD094F83D00002520B984F855
:100450003C50204600F044F9242084F83D002068F8
:10046000016821F00101016000F07AFB4D4A6168EA
:10047000914201D84C4900E04C49884201D2012008
:1004800070BD4B492368B0FBF1F15E6826F03F0672
:100490000E435E606368934206D94FF496735943E6
:1004A0004FF47A73B1FBF3F12368491C1E6A26F0FE
:1004B0003F06314319626168914210D84900401EDD
:1004C000B0FBF1F2521CC2F30B02042A01D2042049
:1004D00022E0B0FBF1F0401CC0F30B001CE0A3686D
:1004E000F3B301EBC10202EB0116421EB2FBF6F2BE
:1004F000521C42F48042120549D093B301EBC10271
:1005000002EB0111401EB0FBF1F0401CC0F30B00E8
:1005100040F4804040F400402168CA694CF6FF7303
:100520009A431043C861D4E90701084321680A6867
:1005300022F0C00210430860D4E90301014320689F
:10054000826848F2FF339A4311438160D4E9050180
:1005500008432168CA6822F0FF021043C86001E026
:100560000EE016E02068016841F001010160256499
:10057000202084F83D00256384F83E50002070BDA3
:1005800001EB4106421EB2FBF6F2521CB3E701201A
:10059000C2E701EB4101401EB0FBF1F0401CC0F38B
:1005A0000B00B7E7A086010080841E0000093D0013
:1005B00040420F002DE9F84F1F4690468A460446F8
:1005C000DDF82890FFF736FF054694F83D00202817
:1005D0007FD11923012240492046009501F044FBB8
:1005E000002876D194F83C00012872D0012084F8CC
:1005F0003C0020680168C90703D1016841F001018E
:1006000001602068016821F400610160212084F804
:100610003D00102084F83E0000262664C4F82480A3
:100620006785608D20852D48E0622B464A465146FD
:10063000204601F0AFFA90B92068416980690090C6
:1006400036E02A464946204601F08DFB50B1206C29
:10065000042804D12068016841F400710160012080
:10066000BDE8F88F606A216800780861606A401C04
:100670006062618D491E6185218D491E89B2218587
:1006800022685369DB435B070BD451B100781061DA
:10069000606A401C6062608D401E6085208D401E37
:1006A00020852A464946204601F0B8FA0028CED1D6
:1006B000208D0028C5D154F83D0B016841F400712C
:1006C0000160202004F81E09E67766770020C7E75E
:1006D000FFE70220C4E70000020010000000FFFF57
:1006E00010B586B00021009101910291039100683C
:1006F0000F4988421AD10F4CA06940F00800A06150
:10070000A069694600F008000490C0200090122003
:100710000190032003900848FFF77EFDE06940F454
:100720000010E061E06900F40010049006B010BD14
:100730000054004000100240000C01400248816853
:10074000027811448160704728000020074810B5E6
:10075000016841F010010160032000F073F80020EF
:1007600000F006F800F024F8002010BD0020024040
:1007700070B50D4D04464FF47A712878B1FBF0F056
:100780000A490968B1FBF0F000F01BFF48B9102CD2
:1007900007D200222146501E00F034F800206C6081
:1007A00070BD012070BD0000280000203400002032
:1007B0000B4808B5816941F001018161816901F04F
:1007C00001010091C16941F08051C161C06900F02F
:1007D000805000900348416821F0E061416008BD0D
:1007E0000010024000000140002809DB00F01F0259
:1007F000012191404009800000F1E020C0F8001183
:1008000070470000F0B40E4B1B680C46C3F3022384
:10081000C3F10705042D00D90425191D072901D2AC
:10082000002300E0DB1E012606FA05F1491E2140E7
:1008300099409E40761E16403143F0BC02F012B93A
:100840000CED00E0064900F0070208684FF6FF03D0
:10085000184040EA0220034A104308607047000035
:100860000CED00E00000FA05014901200862704724
:1008700000000E4210B52CA401461DCC86B08DE8B8
:100880001D002DA02D4C00680490002004292FD0BD
:100890000BDC01292FD0022928D100F071F9616801
:1008A000C1F38131491C49001EE0082920D01029DC
:1008B0001CD161682268D20118D5C1F38342C903F3
:1008C0001DF8020009D5616804AAC1F34041515CDA
:1008D0001B4AB2FBF1F1484301E01A494843616801
:1008E000490203D440000321B0FBF1F006B010BD73
:1008F00000F056F9FAE7226AC2F30121012903D177
:10090000920701D5C803F1E7022905D1626A92076F
:1009100002D549F64040E9E70329E7D12168890378
:10092000E4D54FF22440E1E7020304050607080975
:100930000A0B0C0D0E0F10100102000000100240F7
:1009400000127A0000093D002DE9F84305460078C1
:10095000354CC00754D0E0690026C00008D4E069D7
:1009600040F08050E061E069012600F08050009086
:100970002E480168C90512D40168804641F480718F
:100980000160FFF757FD074605E000BFFFF752FD86
:10099000C01B642823D8D8F80000C005F6D5206A0B
:1009A00010F4407021D0A98801F4407181421CD01C
:1009B000206A1F49012220F440700A6000220A6068
:1009C0002062C00711D0FFF735FD074641F2883895
:1009D00008E000BFFFF72EFDC11B414502D90320EF
:1009E000BDE8F883206A8007F4D5206A696820F49E
:1009F0004070084320621EB1E06920F08050E06141
:100A00002878800705D56068A96820F4404008432D
:100A100060602878C00605D56068696920F48000A8
:100A2000084360600020DBE70010024000700040D7
:100A3000400442422DE9F0470F46050061D0434E85
:100A4000306800F00700B84209D2306820F0070093
:100A500038433060306800F00700B84251D1286850
:100A60003B4C810712D5400703D5606840F4E06035
:100A700060602878000703D5606840F460506060CB
:100A80006068A96820F0F000084360602878C0071B
:100A900028D06868012810D02168022810D0890762
:100AA00000292EDA616821F0030101436160FFF73C
:100AB000C1FC804641F288390DE021688903EFE7E7
:100AC0008901EDE7FFF7B6FCA0EB0801494502D923
:100AD0000320BDE8F0876068696800F00C00B0EBA7
:100AE000810FEFD1306800F00700B8420BD93068B1
:100AF00020F0070038433060306800F00700B8424B
:100B000001D00120E5E72878400705D56068E9684D
:100B100020F4E060084360602878000706D560682C
:100B2000296920F4605040EAC100606000F038F8A4
:100B30006168084AC1F30311515CC8400649086066
:100B400006480068FFF714FE0020C2E700200240BC
:100B500000100240C43C0008340000202C0000209B
:100B60000448054900684968044AC1F30221515C00
:100B7000C84070473400002000100240D43C0008F8
:100B80000448054900684968044AC1F3C221515C20
:100B9000C84070473400002000100240D43C0008D8
:100BA00012A185B00FC98DE80F0014A0144A006887
:100BB00004905168134801F00C03042B10D0082B4B
:100BC0000ED1C1F38343C9031DF803000AD5516850
:100BD00004AAC1F34041515C0A4A5043B0FBF1F012
:100BE00005B0704708494843FAE7000002030405CE
:100BF000060708090A0B0C0D0E0F10100102000069
:100C00000010024000127A0000093D002DE9F84F63
:100C1000040070D02078C04DC00749D06868C0F388
:100C20008100012807D06868C0F38100022809D13B
:100C30006868C00306D52868800339D56068002835
:100C4000E7D035E06068B0F5803F0BD010B1B0F56B
:100C5000A02F11D0286820F480302860286820F464
:100C6000802002E0286840F480302860606890B1FD
:100C7000FFF7E0FB06460AE0286840F48020286081
:100C8000F0E700BFFFF7D6FB801B642873D8286805
:100C90008003F7D50CE0FFF7CDFB064605E000BF6B
:100CA000FFF7C8FB801B6428F0D828688003F7D4BE
:100CB00020789A4E80074FF001094FF0000839D58F
:100CC000686810F00C0F07D06868C0F38100022834
:100CD00009D16868C00306D42868800714D5206944
:100CE000012808D110E02069B0B1C6F80090FFF7E4
:100CF000A1FB074605E00AE1FFF79CFBC01B0228A9
:100D0000C4D828688007F7D52868616920F0F80002
:100D100040EAC10028600DE0C6F80080FFF78AFBBA
:100D2000074604E0FFF786FBC01B022823D828688B
:100D30008007F7D4207800072CD57948A169D9B16C
:100D4000C0F80090FFF776FB074604E0FFF772FB60
:100D5000C01B02280FD8686A8007F7D571484FF486
:100D6000FA510068B0FBF1F0009000BF0098411EFE
:100D70000091FAD20EE080E0C0F80080FFF75AFB45
:100D8000074604E0FFF756FBC01B022875D8686AC7
:100D90008007F7D42078400760D5E8690027C000B5
:100DA00008D4E86940F08050E861E869012700F064
:100DB000805000905C480168C90513D401688346DF
:100DC00041F480710160FFF735FB824606E000BF09
:100DD000FFF730FBA0EB0A0064284ED8DBF80000D8
:100DE000C005F5D5E06801280AD008B1052813D060
:100DF000286A20F001002862286A20F0040002E03E
:100E0000286A40F001002862E06841F2883B98B10E
:100E1000FFF710FB82460BE0286A40F004002862CE
:100E2000EEE700BFFFF706FBA0EB0A0159455AD8D1
:100E3000286A8007F6D50CE0FFF7FCFA824605E049
:100E4000FFF7F8FAA0EB0A0159454CD8286A800749
:100E5000F6D41FB1E86920F08050E861E06988B3FA
:100E60006968C1F38101022944D00228C6F8608074
:100E700004D0FFF7DFFA044638E034E0FFF7DAFA8F
:100E8000074604E0FFF7D6FAC01B02282BD82868D3
:100E90008001F7D4206AB0F5803F05D16868A16869
:100EA00020F4003008436860D4E908010843696809
:100EB00021F4741108436860C6F86090FFF7BAFA2D
:100EC000044606E025E000BFFFF7B4FA001B022845
:100ED00009D828688001F7D51BE000BFFFF7AAFA00
:100EE000001B022802D90320BDE8F88F2868800182
:100EF000F4D40EE00128F7D06868226A00F480314B
:100F0000914204D1616A00F47010884201D001203E
:100F1000EAE70020E8E7000000100240000042423B
:100F2000800442423400002000700040024850F823
:100F3000210080B270470000006C0040024800EBC6
:100F4000810091B201607047006C0040F8B5050067
:100F50004FF0000016460C46009006D02CB100223F
:100F60006946284600F019F808B10120F8BD287B31
:100F70002070E87BE070697B6170A97BA17056B13D
:100F800001F0E1F9E070607801F0DDF96070A078BF
:100F900001F0D9F9A0700020F8BD2DE9F047914685
:100FA0000C465FEA00084AD084B3D8F800004068D5
:100FB000400744D4404601F065FA4FF461620546AB
:100FC000B0FBF2F1B0FBF2F302FB13503C23B0FB99
:100FD000F3F0B5FBF2F6607002FB1650B0FBF3F2D3
:100FE00003FB1200A070182931D31820B1FBF0F7D1
:100FF000B1FBF0F200FB12102070404601F03BFA0A
:10100000411C04D0A84202D9461B02E017E04FF071
:10101000FF36A7EB071000EB4000C0EB001005EB1C
:10102000C0152946404601F07CFA40B9701C01D039
:10103000711900E03146404601F05FFA10B101201D
:10104000BDE8F0873946404601F088F900E021709C
:10105000B9F1000F0BD0207801F075F9207060789D
:1010600001F071F96070A07801F06DF9A0700020B6
:10107000E6E7000070B5040003D0607C002610B1E4
:1010800005E0012070BD2674204600F043F80220E0
:101090006074204600F010F9042578BB204601F06A
:1010A000B4F958BB2068416821F007014160A0688D
:1010B00020B11748016821F0010101601448001FA8
:1010C0000168A26821F46071114301606068411CED
:1010D00004D10120FFF7CEFB80B1401E21688A6851
:1010E00022F00F0242EA10428A602168CA6860F367
:1010F0000F02CA60204601F0A3F908B16574C0E789
:10110000E67301206073A0736074002070BD00005E
:10111000306C004008B50068084988420DD1FFF7DF
:10112000A3FB0748C16941F00061C161C06905497D
:1011300000F0006000900120086008BD0028004019
:10114000001002403C0442422DE9F0410D460400EB
:101150003BD0C5B3207C01283AD04FF0010884F879
:10116000108002206074E87872B301F0E3F8E07355
:10117000687801F0DFF86073A87801F0DBF8A073FD
:10118000C2B2617BE07B01F08DF9207328702046AC
:1011900001F078F94FF46161B0FBF1F100251829F5
:1011A0002DD91822B1FBF2F1A1EB011101EB4101A4
:1011B000C1EB011100EBC1163146204601F0B1F937
:1011C0000427C8B90BE000E004E00120BDE8F0818D
:1011D0000220FBE7E07368786073A878CFE72046C9
:1011E00001F049F9411C0AD0B04208D20649014435
:1011F000204601F082F910B167742574E5E784F8A0
:10120000118025740020E1E7805101002DE9F041B3
:101210000D46040024D01DB3207C012823D04FF0BC
:10122000010884F81080022060742878EAB101F087
:1012300081F84FF4616100FB01F6687801F07AF8FB
:10124000C0EB001006EB8006A87801F073F83518A3
:101250002946204601F065F90026042710BB0FE05F
:101260000120BDE8F0810220FBE74FF461614843B3
:101270006978C1EB011100EB8100A9784518E7E717
:101280002068416821F005014160204601F0F3F833
:10129000411C0AD0A84208D206490144204601F068
:1012A0002CF910B167742674DAE784F8118026747B
:1012B0000020D6E78051010070B504000AD02068F4
:1012C000416821F008014160FFF7B4F805464FF48A
:1012D0007A7608E0012070BDFFF7ACF8401BB04201
:1012E00001D9032070BD206840680007F4D50020B4
:1012F00070BD70B5040005D00025A56294F85100BA
:1013000010B106E0012070BD84F85050204600F076
:101310002FF8022084F851002068016821F0400174
:101320000160D4E901010843D4E9031211430843E1
:1013300061690843218B01F400710843E1690843A6
:10134000216A0843A16A084321680860A069042152
:1013500001EA1040216848602068C16921F40061F9
:10136000C1616565012084F85100002070BD000056
:1013700030B585B000240094019402940394006871
:101380001449884223D11448816941F48051816114
:10139000816901F480510491816941F00401816106
:1013A00080690E4D00F004000490A02000900220FF
:1013B00001900320039069462846FEF72DFF402048
:1013C000CDE90004694628460294FEF725FF05B0E2
:1013D00030BD000000300140001002400008014014
:1013E0002DE9F84F044690F8500000270A9E1D464C
:1013F00092468B464FF0010901280ED0012084F857
:101400005000FFF717F8804694F8510061680128F2
:101410000CD0B1F5827F07D102E00220BDE8F88F41
:10142000A16809B9042801D00227C2E0BBF1000F6E
:1014300027D0BAF1000F24D01DB394F8510004282E
:1014400002D0052084F8510000206065C4F838A05F
:10145000E587A587C4F830B0E586A586206460647A
:1014600020680168490603D4016841F04001016029
:10147000E068B0F5006F606805D0E8B3012D46D094
:101480007FE0012795E008B1012D39D1206B21685B
:101490000088C860206B801C2063E08E401EE086C0
:1014A0002EE02068816889070FD5E18E69B1B9F116
:1014B000010F0AD1216B0988C160206B801C206359
:1014C000E08E401EE0864FF0000920688168C90761
:1014D0000CD0E18F51B1C068A16B0880A06B801C5B
:1014E000A063E08F401EE0874FF00109FEF7A2FFE6
:1014F000A0EB0800B04200E009E001D3701C50D11D
:10150000E08E0028CDD1E08F0028CAD13FE0206BCB
:10151000216800780873206B401C2063E08E401E19
:10152000E0862EE02068816889070FD5E18E69B1D9
:10153000B9F1010F0AD1216B09780173206B401CAE
:101540002063E08E401EE0864FF00009206881682D
:10155000C9070CD0E18F51B1C068A16B0870A06BB6
:10156000401CA063E08F401EE0874FF00109FEF7AA
:1015700061FFA0EB0800B04202D3701C01D010E064
:101580007EB1E08E0028CDD1E08F0028CAD142463E
:101590003146204601F01AF828B101272020606565
:1015A00007E0032705E0A06818B92068C1688068D3
:1015B0000090012084F85100002084F85000384643
:1015C0002CE710B5401EB0F1807F01D3012010BD83
:1015D0004FF0E02460610F21601701F043FA002012
:1015E000A06107202061002010BD7047704770B5D2
:1015F00090F83C20012A19D0012400F83C4F022227
:10160000427050F83C3C5A689D6822F070060A68A7
:101610004968324325F0800529435A6050F83C2C34
:101620009160447000210170084670BD022070BDB9
:1016300010B5040003D094F83D0010B107E001207C
:1016400010BD002084F83C00204600F00DF8022078
:1016500084F83D00211D206801F0E4F8012084F8A1
:101660003D00002010BD000008B5274A016827484A
:1016700091420ED1C16941F00401C161C0690022EB
:1016800000F00400009011461E20FFF7BBF81E205A
:1016900034E01F4A91420ED1C16941F00801C16195
:1016A000C069002200F00800009011463220FFF7C8
:1016B000A9F8322022E0174A91420ED1C16941F0C7
:1016C0001001C161C069002200F0100000901146B5
:1016D0003620FFF797F8362010E00F4A914211D1DB
:1016E000C16941F02001C161C069002200F0200001
:1016F000009011463720FFF785F83720BDE80840F5
:10170000FFF772B808BD000000080040001002405A
:10171000000C00400010004000140040022180F83E
:101720003D1001688A6802F00702062A03D00A68A1
:1017300042F001020A60012180F83D10002070474C
:101740000168CA6842F00102CA600068816801F05D
:101750000701062903D0016841F001010160002062
:101760007047022180F83D1001680A6A41F21113A6
:101770001A4207D10A6A9B101A4203D10A6822F062
:1017800001020A60012180F83D100020704770B509
:10179000044690F83C00012817D0012584F83C50FD
:1017A000022084F83D002068826822F0770222F44B
:1017B0007F4282600868502830D00DDC20284DD050
:1017C00005DC98B310283BD148E0022070BD3028DA
:1017D00044D0402834D139E0602828D0702806D081
:1017E000B0F5805F2CD0B0F5005F29D10AE0CB685E
:1017F000D1E90121206801F05BF82068816841F09F
:10180000770109E0CB68D1E90121206801F050F8A7
:101810002068816841F48041816011E0CA684968AC
:10182000206801F057F85021206807E016E0CA68E8
:101830004968206801F05FF86021206801F042F8F3
:1018400084F83D50002084F83C0070BDCA684968A7
:10185000206801F03FF840212068EFE72268014648
:101860001046EBE7704770B50446006801694FF019
:101870000005C943890715D4C168C943890711D434
:10188000E91E0161012020772068806980072046D9
:1018900002D0FFF7E7FF04E000F098F8204600F0E0
:1018A00096F8257720680169C943490717D4C168AC
:1018B000C943490713D46FF0040101610220207766
:1018C0002068806910F4407F204602D0FFF7CAFFED
:1018D00004E000F07BF8204600F079F825772068D6
:1018E0000169C943090716D4C168C943090712D45D
:1018F0006FF008010161042020772068C06980072B
:10190000204602D0FFF7AEFF04E000F05FF820466B
:1019100000F05DF8257720680169C943C90617D42E
:10192000C168C943C90613D46FF0100101610820D2
:1019300020772068C06910F4407F204602D0FFF76E
:1019400091FF04E000F042F8204600F040F82577CF
:1019500020680169C943C90708D1C168C943C907DB
:1019600004D1891E0161204600F032F82068016927
:10197000C943090609D4C168C943090605D46FF0F3
:10198000800101612046FFF730FE20680169C943EC
:10199000490609D4C168C943490605D46FF040011E
:1019A0000161204600F015F820680169C9438906E5
:1019B0000BD4C168C943890607D46FF020010161C7
:1019C0002046BDE87040FFF711BE70BD70477047FC
:1019D0007047704770B5040004D094F839000025B2
:1019E00010B106E0012070BD84F83850204600F0A8
:1019F00023F8242084F839002068C16821F40051BC
:101A0000C160204600F08AFF2068016921F49041FE
:101A100001612068416921F02A0141612068C168A3
:101A200041F40051C160E563202084F8390084F856
:101A30003A00002070BD000030B585B0002400944D
:101A400001940294039400681449884224D11448F4
:101A5000816941F480418161816901F4804104918F
:101A6000816941F00401816180690E4D00F004003C
:101A700004904FF400700090022001900320039026
:101A800069462846FEF7C8FB2815CDE900046946DB
:101A900028460294FEF7C0FB05B030BD0038014077
:101AA00000100240000801402DE9F843044690F878
:101AB00039001F4616460D46202850D1A5B19EB1CB
:101AC00094F8380001284AD0012084F838004FF0FB
:101AD0000008C4F83C80212084F83900FEF7AAFCF5
:101AE000A6848146E68426E00120BDE8F883E08CE8
:101AF000401EE084A0684B46B0F5805F4FF00002C6
:101B00004FF080012046009703D000F063FFE8B952
:101B10000DE000F05FFFC8B928882168C0F3080015
:101B20004860206908B16D1C05E0AD1C03E0216828
:101B300015F8010B4860E08C0028D8D14B460022F4
:101B400040212046009700F045FF08B10320CCE774
:101B5000202084F8390084F838800020C5E702206E
:101B6000C3E7FEE701684A69D24352050FD46FF418
:101B700080624A61002140F8301F20224273817345
:101B8000026942F0040202610173012070470020E3
:101B900070470000F8B50446C06A1E460D46174659
:101BA000082807D0012805D010F5803F02D0206B0F
:101BB000122804D12068016841F480710160134645
:101BC00000224FF001112046009600F04DF808BBAE
:101BD0002069B0F5804F0ED00620216800EAD510AC
:101BE00040F0F000086133463A460B49204600F0C9
:101BF0006FF878B902E005F0FE0000E0E8B2216875
:101C00000861054933463A46891F204600F060F8CE
:101C1000002800D00120F8BD0800010070B516466C
:101C20000D4604460DE02046FFF79CFF08B1012059
:101C300070BD681C05D0FEF7FDFB801BA84207D8CD
:101C400035B120684069C0434007ECD4002070BD26
:101C5000002044F8300F20216173A073216941F006
:101C6000200121612073E2E72DE9F0471E469046EE
:101C70000D460446C1F30747DDF8209008E0701CCC
:101C800006D0FEF7D7FBA0EB0900B0420FD876B123
:101C90002068012F18D0806925EA00000004000C9C
:101CA00014D000214145EAD00020BDE8F087002093
:101CB00044F8300F20216173A073216941F02001A5
:101CC000216120730120F0E74069E5E70121E9E7A0
:101CD0002DE9F0479A4691460E46044600254FF0FE
:101CE0002008C1F3074725E020684069C04340054C
:101CF00014D42068016841F40071016021686FF418
:101D000080604861256384F83D8084F83E50206CF3
:101D100040F00400206484F83C501FE0B9F1FF3F1C
:101D200008D0FEF787FBA0EB0A0149450CD8B9F1B2
:101D3000000F09D02068012F13D0806926EA000027
:101D40000004000C0BD0CFE744F8305F84F80D801E
:101D5000A573206940F02000206125730120BDE8B3
:101D6000F0874069EAE770B516460D4604460DE077
:101D70002046FFF7F7FE08B1012070BD681C05D0B2
:101D8000FEF758FB801BA84207D835B12068406990
:101D9000C0430006ECD4002070BD002044F8300F92
:101DA00020216173A073216941F02001216120731A
:101DB000E2E710B5142000F0BCF8800705D103213C
:101DC000BDE81040142000F0D6B810BD7CB5044624
:101DD000002529460D2000F064F993202070202072
:101DE000607001A823460090022219460C2000F0E2
:101DF000CEF8010009D1225C401C5540C0B2042835
:101E0000F9D3205CA84200D0022108467CBD2DE910
:101E1000F0410E46074615460421052000F036F82D
:101E200080210A2000F0A7F8002405E0395D092090
:101E300000F037F9641CE4B2B442F7D30321012067
:101E400000F02FF9FF24052000F073F8641E14F051
:101E5000FF0401D04007F6D5222000F06AF8287070
:101E6000212000F066F86870BDE8F08170B5054685
:101E70000146262000F064F8040003D12846FFF74D
:101E8000A5FF044600F01CF8204670BD70B50C4656
:101E9000054600F04EF820EA04012846BDE87040EF
:101EA00000F0FFB810B50022835C8C5CA34201D027
:101EB000022010BD521CD2B2052AF5D3002010BD5D
:101EC0000EB550208DF8040000208DF805000DF1AE
:101ED0000602022101A8FFF79AFF02A801AB0090B9
:101EE000042219460C2000F052F80EBD10B500F087
:101EF0003EF88D212A2000F0D4F83E212B2000F05E
:101F0000D0F81E212D2000F0CCF800212C2000F06C
:101F1000C8F87021262000F0C4F84021152000F0F8
:101F2000C0F83D21112000F0BCF8BDE81040FFF7DB
:101F300040BF7E2101EA400040F0800000F016BB67
:101F40007CB50C46054607210D2000F0AAF8257047
:101F500001A823460090012219460C2000F017F832
:101F600018B9BDF80410102900D002207CBD0F2143
:101F7000012000F096B870B50C460546FFF7D9FF72
:101F800040EA04012846BDE8704000F08AB82DE917
:101F9000FF5F00270226DDF838A015468B468146F4
:101FA000B8460C2805D0B9F10E0F05D11227102024
:101FB00001E077273020804647F08001022000F0C2
:101FC00070F880210420FFF761FF80210A20FFF7CD
:101FD000D2FF0021012000F064F8002406E01BF885
:101FE0000410092000F05DF8641CA4B2AC42F6D3E2
:101FF0004946012000F055F8B9F10C0F03D18021BA
:102000000D20FFF7B8FF4FF4FA650420FFF791FFAA
:102010006D1E2D0404462D0C04D0E00702D114EAF5
:10202000080FF2D080210D20FFF730FF35B10620D8
:10203000FFF77FFF10F01B0F04D0022604B03046DC
:10204000BDE8F09F00263C40E00700D00126B9F132
:102050000C0FF3D10A20FFF76CFF04460C20FFF7AA
:1020600068FF10F007004FEAC40104D008390844A3
:10207000AAF8000001E0AAF8001024B1102C04D93D
:102080001024002503E00124FBE7002506E00920D9
:10209000FFF74FFF039948556D1CADB2A542F6D32B
:1020A000CCE77E2202EA400000F078BA2DE9F04F3A
:1020B00085B000253E4800950195029503958169FC
:1020C00041F020018161816901F020010491816961
:1020D00041F004018161816901F004010491816989
:1020E00041F008018161816901F008010491816971
:1020F00041F0100181618069DFF8B8B000F0100094
:102100000490002210215846FEF78EF9DFF8A890BF
:10211000002241F604014846FEF786F9DFF89CA04C
:102120004FF4E078002241465046FEF77DF9012445
:102130001020CDE900040326CDE902466946584641
:10214000FEF76AF8042002278DE8910069464846A8
:102150000397FEF761F8E0028DE8B1006946484652
:10216000FEF75AF82003CDE90004CDE9024669469E
:102170004846FEF751F8CDE90084CDE902466946AC
:102180005046FEF749F86002CDE900056946029421
:102190005046FEF741F84FF41060CDE9000569465E
:1021A00002945846FEF738F805B0BDE8F08F0000FD
:1021B0000010024000080140000C014000100140E6
:1021C0001CB50020019000901C481B4901604FF095
:1021D000FF3141604FF480718160FEF74BFF0121B8
:1021E0001648FEF7A3FE43F2F224A04223D01620A5
:1021F0008DF804000B208DF8050005208DF80600F1
:10220000002201A90D48FFF701F804208DF8000015
:1022100012208DF8010019208DF8020013208DF88E
:102220000300002269460548FEF78EFF2246012181
:102230000248FEF783FE1CBD002800408C000020F1
:102240000C480B494FF4007201604FF482714160F9
:1022500000218160C1600161C0E905121822C0E956
:102260000721416281620A21C162FFF742B8000082
:1022700000300140A000002010B586B000241448B2
:10228000009401940294039404941049059401600D
:102290004FF4E151C0E901144FF47A71C0E903141D
:1022A0008461FFF7C5F94FF48050009069460848F3
:1022B000FFF76DFA049404A905480594FFF797F910
:1022C0000348FFF74EFA06B010BD000000080040BA
:1022D000F800002010B586B0002414480094019442
:1022E0000294039404941049059401604FF4E15161
:1022F000C0E9011441F27071C0E903148461FFF771
:1023000097F94FF48050009069460848FFF73FFA6C
:10231000049404A905480594FFF769F90348FFF7F9
:1023200020FA06B010BD0000000C0040380100206B
:10233000FEE77047010901EB810100F00F0000EB9F
:102340004100C0B27047002102E00A38C0B2491C07
:102350000A28FAD2090740EA116070472DE9F041D6
:1023600004460025C07B627BA37B42E0012A16D095
:10237000032A14D0052A12D0072A10D0082A0ED01A
:102380000A2A0CD00C2A0AD0042A10D0062A0ED011
:10239000092A0CD00B2A0AD0022A0DD028E01F2BC4
:1023A0000CD30C2A05D101221346401C20E01E2B21
:1023B00004D30123521C1BE01C2B02D203F10103A6
:1023C00016E011D183B29E0710D16426B3FBF6F755
:1023D00006FB173636B94FF4C876B3FBF6F706FBA3
:1023E00017331BB91D2303E01D2B01D10322012349
:1023F0006D1C8D42BAD3D1B2E0736173DAB2A273AD
:1024000000F050F82073BDE8F08170B50446FEF787
:1024100011F805464FF47A7606E0FEF70BF8401BFC
:10242000B04201D9032070BD206840688006F4D511
:102430002068416841F010014160002070BD00003B
:1024400070B504460068416821F010014160FDF755
:10245000F1FF05464FF47A7607E000BFFDF7EAFF8B
:10246000401BB04201D9032070BD2068406880063F
:10247000F4D5002070BD0168086A496A89B241EA52
:1024800000407047006881698AB2C1698BB2816976
:1024900089B28A4203D0C06961F31F40704743EAA2
:1024A00002407047F0B56424C1EBC1030927A500C1
:1024B000072603EB01130329B3FBF7F100F5FA60DC
:1024C000114401440AD2401EB0FBF4F201EB90012A
:1024D000B0FBF5F0891A0844001D08E0B0FBF4F2E7
:1024E00001EB9001B0FBF5F0891A0844801CB0FBA9
:1024F000F6F106FB1100C0B2F0BD70B50D46064600
:102500000024FFF782FF48B93168280C086231685F
:10251000A8B248623046FFF793FF00B1012420467D
:1025200070BD70B50D4606460024FFF76EFF48B932
:102530003168280C88613168A8B2C8613046FFF75D
:102540007FFF00B10124204670BD00000EB50123BD
:102550008DF804000A20009002AA01A90248FEF7A3
:102560003FFF9DF808000EBDA000002070B50A4D89
:102570000446002210212846FDF756FF2046FFF7AB
:10258000E5FF0020FFF7E2FF044601221021284664
:10259000FDF74AFF204670BD0008014070B50A4CA7
:1025A0000E460546002210212046FDF73DFF284635
:1025B000FFF7CCFF3046FFF7C9FF2046BDE870406B
:1025C00001221021FDF730BF0008014038B50B464D
:1025D000009204460022802100F008F8002804D070
:1025E000606D40F020006065032038BD2DE9F041AA
:1025F0001D4617460E460446DDF8188008E0681CA4
:1026000006D0FDF717FFA0EB0800A8420BD255B18A
:102610002068806836EA000030D00020B842EED151
:102620000020BDE8F0812068416821F0E0014160B0
:102630006068B0F5827F0BD1A068B0F5004F02D082
:10264000B0F5806F04D12068016821F0400101607D
:10265000A06AB0F5005F09D12068016821F400513B
:1026600001602068016841F400510160012084F894
:102670005100002084F850000320D2E70120CDE76C
:10268000FEF75CB870B596B028216846FDF773FD7B
:1026900014210AA8FDF76FFD18210FA8FDF76BFDA7
:1026A0000920012500904FF4803000240495069500
:1026B000CDE901040226CDE907604FF4E01009904E
:1026C0006846FEF7A3FA0F20CDE90A06A802CDE975
:1026D0000C4002210AA80E94FEF7ACF96802CDE97D
:1026E0000F500FA8FEF730F916B070BD0D48016805
:1026F00041F00101016041680B4A114041600168ED
:102700000A4A11400160016821F48021016041689A
:1027100021F4FE0141604FF41F0181600449C003B0
:1027200008607047001002400000FFF8FFFFF6FE4F
:1027300008ED00E010B50648FFF795F80448FFF7EC
:1027400010F80022BDE8104004210248FDF76CBEDD
:10275000F8000020000C014070B50C48FFF783F82A
:102760000B4D04212846FDF758FE0A4C2068052829
:1027700009DB0648FEF7F5FF002204212846FDF795
:1027800053FE00202060401C206070BD38010020F6
:10279000000C01402400002010B50D48FFF763F83D
:1027A000802000F0E3FB0BA000F020FCC02000F034
:1027B000DDFB0DA000F01AFCC02000F0D7FB0FA03D
:1027C00000F014FCBDE810400148FEF7CABF00004D
:1027D0007801002050617373776F7264206F7220EC
:1027E000436172640000000020202020202020206F
:1027F00020202020202020200000000050573A00F8
:1028000010B50648FFF72FF80448FEF7AAFF00228C
:10281000BDE8104004210248FDF706BEB8010020C3
:10282000000C0140F0B502681C4B1D4D1D4E1E4FA3
:102830001E4C4FF0804C984209D0A04207D0604512
:1028400005D0A84203D0B04201D0B84204D122F052
:10285000700E4A6842EA0E02984209D0A04207D0A0
:10286000604505D0A84203D0B04201D0B84203D1A0
:1028700022F44075CA682A434D6922F080022A4337
:1028800002608A68C2620A688262984201D0A042ED
:1028900001D10969016301214161F0BD002C0140B2
:1028A0000004004000080040000C004000340140DB
:1028B00010B5846842EA032224F47F440A43224389
:1028C000826010BD826822F070020A4342F0070164
:1028D0008160704710B5036A046A24F00104046241
:1028E000846924F0F00444EA021423F00A020A4343
:1028F0008461026210BD10B5036A23F01003036205
:102900008369046A23F4704343EA023224F0A0038B
:1029100043EA01118261016210BD00002DE9F0411E
:10292000044600680169E26821F4405111430161E5
:102930002169A0680843616908432168CA6841F2B7
:102940000C639A430243CA6020684169A26921F47A
:102950004071114341611E49206864253226884236
:1029600002D1FEF70DF901E0FEF7FAF800EBC00125
:1029700001EB001160686FF018078000B1FBF0F206
:10298000B2FBF5F2B1FBF0F37A4303EB8202B1FB49
:10299000F0F306EB0212B2FBF5F2B3FBF5F302F033
:1029A000F00202EB0312B1FBF0F3B1FBF0F0B0FB6D
:1029B000F5F0784303EB800006EB0010B0FBF5F078
:1029C000216800F00F0010448860BDE8F08100002D
:1029D000003801402DE9F041984617460E4604465E
:1029E000069D1DE0681C1BD02DB1FDF723FDA0EB5B
:1029F0000800A84214D92068C16821F4D071C160D0
:102A00002068416921F001014161202084F83900EA
:102A100084F83A00002084F838000320BDE8F081F3
:102A20002068006836EA000004D00020B842D9D0FF
:102A30000020F3E70120F9E7FEE700000FB4084BA0
:102A400010B504A902AA039800F02CF8044602A9C4
:102A5000002000F0C8F9204610BC5DF814FB00000F
:102A6000E72D00080907090E002804DB00F1E0202B
:102A700080F80014704700F00F0000F1E02080F8AB
:102A8000141D704702E008C8121F08C1002AFAD1BD
:102A900070477047002001E001C1121F002AFBD1DE
:102AA000704700002DE9FF4F8BB088460546002691
:102AB00006E025280BD0DDE90D1290476D1C761C31
:102AC00028780028F5D10FB03046BDE8F08F0024FB
:102AD000A146A2460122AE4900E0044315F8013F99
:102AE000203B02FA03F00842F7D128782A2810D0B8
:102AF0006FF02F022878A0F13001092915D809EBD1
:102B0000890102EB410144F0020400EB01096D1C54
:102B1000F0E758F8041B5FEA010903D544F40054B8
:102B2000C9F1000944F002046D1C28782E2817D141
:102B300015F8010F44F004042A280ED06FF02F027C
:102B40002878A0F1300109290AD80AEB8A0102EBA2
:102B5000410100EB010A6D1CF2E758F804AB6D1C53
:102B600028786C280FD006DC4C2817D068280DD0A8
:102B70006A2814D104E0742810D07A280FD10DE00F
:102B800044F400140AE044F4801401E044F44014D6
:102B90006978814202D104F580146D1C6D1C28787F
:102BA000692865D006DC00288DD0632827D06428EA
:102BB00006D15DE06E2808D073282AD0752877D01A
:102BC000DDE90D129047761CE0E0C4F302500228C4
:102BD00009D003280DD0D8F8001004280DD00E60BD
:102BE00008F10408D2E0D8F80010F217C1E9006239
:102BF000F6E7D8F800100E80F2E70E70F0E718F84C
:102C0000041B8DF8001000208DF80100EB46012018
:102C100003E058F804BB4FF0FF3061074FF00007A6
:102C200001D40AE07F1C57450DDA8742FADB1BF816
:102C300007100029F6D106E07F1C8742FCDB1BF859
:102C400007100029F8D1DDE90D23A9EB0700814623
:102C5000214600F0B1F83044C61904E0DDE90D1258
:102C60001BF8010B90477F1EF8D22146484688E0AA
:102C700058F8040BC4F302514FF00A0B032900D19A
:102C800000B2042900D140B2002802DA40422D21CE
:102C900002E0210505D52B218DF82410012104E047
:102CA00006E0E10710D02021F6E708AF089113E015
:102CB00058F8040BC4F302514FF00A0B032900D15A
:102CC00080B2042900D1C0B20021EEE75946FDF7D9
:102CD00066FA303107F8011D0028F7D1ADEB070087
:102CE00000F1200B600702D524F4803401E04FF09E
:102CF000010ADA4502DDAAEB0B0000E00020824663
:102D000000EB0B0108980144A9EB01000A90E003D5
:102D100006D4DDE90D2321460A9800F04DF806445B
:102D20004FF0000908E009A911F80900DDE90D12CA
:102D3000904709F10109761C08998945F3DBE00306
:102D40000CD5DDE90D2321460A9800F035F806443C
:102D500004E0DDE90D1230209047761CBAF1000145
:102D6000AAF1010AF5DC05E0DDE90D1217F8010B07
:102D70009047761CBBF10001ABF1010BF4DC0A9823
:102D80002146DDE90D2300F005F806446D1C97E6A9
:102D9000092801002DE9F041044600251E4617468A
:102DA000880404D405E039462020B0476D1C641E19
:102DB000F9D52846BDE8F0812DE9F041044600250B
:102DC0001E469046C80301D5302700E0202788041E
:102DD00004D505E041463846B0476D1C641EF9D560
:102DE0002846BDE8F0810A68531C0B6010707047DC
:102DF00038B5204C0122D1022046FDF715FB1E48B4
:102E0000FEF78CFC012204212046FDF70DFB002279
:102E10001A491B48FEF7C1F818490022C91C184876
:102E2000FEF794F8154881780091437802781248AB
:102E300014A19F30FFF702FE0F4A00209F3202F1DB
:102E40003201135C0B54401C3228FAD90A4964231E
:102E5000D1313222A1F19100FEF726FE0020064A70
:102E6000014680321154401C0E28FBDD03480A380D
:102E7000C17138BD000C0140B80100200A000020DB
:102E80008C0000202532642F2532642F25326420E7
:102E9000556E646566696E656420436172640A00FC
:102EA000012812D0022812D0032812D0042812D0F0
:102EB000052812D0062812D0072812D0082812D0D0
:102EC000092812D098B10020704731207047322075
:102ED00070473320704734207047352070473620C4
:102EE00070473720704738207047392070473020AE
:102EF000704710B53220FDF77DF9302000F036F82C
:102F00000520FDF777F9302000F030F80120FDF7BB
:102F100071F9302000F02AF80A20FDF76BF9202023
:102F200000F024F80A20FDF765F9282000F01EF8CB
:102F30000120FDF75FF9082000F018F80120FDF7E7
:102F400059F9012000F012F80120FDF753F9012092
:102F5000FDF750F9062000F009F80120FDF74AF9C5
:102F6000BDE810400C2000F001B800001CB500F0D6
:102F7000F00141F00C028DF8042041F0080100013D
:102F80008DF8051040F00C018DF8061040F0080097
:102F90008DF8070064200090042301AA4E21024806
:102FA000FDF708FB1CBD0000380000201CB500F038
:102FB000F00141F00D028DF8042041F009010001FB
:102FC0008DF8051040F00D018DF8061040F0090055
:102FD0008DF8070064200090042301AA4E210248C6
:102FE000FDF7E8FA1CBD00003800002010B50446CB
:102FF00002E0641CFFF7DAFF20780028F9D110BD49
:10300000C0B031208DF804006F208DF805004420F9
:103010008DF8060035208DF807002F208DF8080068
:10302000FEA10DF104090DF10900FDF7AFF806A8A6
:10303000FCA13A90FDF7AAF826208DF830000C2468
:103040008DF83140FF208DF8320064208DF8330078
:103050009C208DF83400F6A10DF1300B0DF13500F8
:10306000FDF794F811A8F4A13B90FDF78FF88820A4
:103070008DF85C0004208DF85D0056208DF85E0010
:103080008F208DF85F0055208DF86000ECA10DF1C8
:103090006100FDF77BF81CA8EBA13C90FDF776F8EA
:1030A00019208DF88800E0208DF8890096208DF891
:1030B0008A00F72098258DF88C008DF88B50E5A1BB
:1030C0000DF18D00FDF762F827A8E4A13D90FDF712
:1030D0005DF8C9208DF8B400CD208DF8B5005F20D3
:1030E0008DF8B600C3208DF8B8008DF8B750D9A17F
:1030F0000DF1B40A0DF1B900FDF748F832A8DAA1D4
:103100003E90FDF743F8FDF721FBFFF7BBFAFEF712
:10311000CDFFD948D74900250160D849C0E901153C
:103120004FF48041C0E9035145618561C561056285
:10313000FDF786F9FFF784F8FFF742F8FFF79CF8F0
:10314000FFF7C8F8CF483895CD494FF4E156399587
:10315000C0E9001645F20821C0E902518561FEF779
:1031600067FA389538A9C7483995FEF740FAC54837
:1031700038954030C4493995C0E9001642F6E061FF
:10318000C0E902518561FEF753FABE48389538A967
:1031900040303995FEF72BFABA48BC4980300160BF
:1031A0004FF41651C0E90115C560C0E904548561AA
:1031B000C561FEF70FFCFEF799FEFFF79AFEB148D6
:1031C0008038FEF7BDFAAF484038FEF7B9FAAD488F
:1031D0004030FEF7B5FAAB48FEF7B2FAA94880389E
:1031E000FEF7BFFAA7484038FEF7BBFAA5484030C3
:1031F000FEF7B7FAA348FEF7B4FA8020FFF7B6FE51
:10320000A3A0FFF7F3FEC020FFF7B0FEA5A0FFF7D5
:10321000EDFE0122D102A448FDF706F9994EA34C18
:103220004FF00108C036A1481130FEF71FFE0028FC
:103230006FD19E4801A91130FEF734FE10B9607AB3
:10324000012807D099480CA91130FEF72BFE002861
:1032500054D056E09549884800220A315430FDF791
:103260009CFE9249844800220D315430FDF76EFED9
:103270008E480A3081780091437802788CA1123010
:10328000FFF7DCFB89490DF127001C313890FCF772
:103290007DFF7C484F467A1D88A1CF303A9BFFF7CF
:1032A000CDFB8020FFF762FE86A0FFF79FFE802007
:1032B000FFF75CFE7348CF30FFF798FEC020FFF7A2
:1032C00055FE80A0FFF792FEC020FFF74FFE82A0C0
:1032D000FFF78CFE3A9800906A487B1D81A1DF3091
:1032E000389AFFF7ABFB67490020DF3101F132026A
:1032F0000B5C1354401C3228FAD9EBE1607A0128A8
:1033000008D06A4817A91130FEF7CCFD002855D027
:1033100057E00AE26549584800220A315430FDF767
:103320003CFE6249544800220D315430FDF70EFE38
:103330005E480A3081780091437802785CA11230AF
:10334000FFF77CFB59490DF153001C313890FCF715
:103350001DFF4C485F467A1D58A1CF303B9BFFF7BD
:103360006DFB8020FFF702FE56A0FFF73FFE802096
:10337000FFF7FCFD4348CF30FFF738FEC020FFF7D2
:10338000F5FD50A0FFF732FEC020FFF7EFFD52A081
:10339000FFF72CFE3B9800903A487B1D51A1DF308F
:1033A000389AFFF74BFB37490020DF3101F1320239
:1033B0000B5C1354401C3228FAD98BE1607A012847
:1033C00007D03A4822A91130FEF76CFD002823D01F
:1033D000C6E03649284800220A315430FDF7DDFDA9
:1033E0003249254800220D315430FDF7AFFD2F48FA
:1033F0000A3081780091437802782DA11230FFF7CE
:103400001DFB2A490DF17F001C313890FCF7BEFEF0
:1034100017AF2AA11B486BE09FE00000546F6C6758
:10342000610000004B6F636173617269000000000E
:103430004875736579696E004261746D617A000048
:10344000476F6B617900000059696C646972696D3E
:1034500000000000477565737400000043617264EA
:103460003132363700000000436172643538313143
:10347000000000000054004038000020A086010039
:103480000010004078010020001400400038014086
:1034900050617373776F7264206F7220436172643E
:1034A0000000000050573A00000C014000000020CE
:1034B0002532642F2532642F2532640025732025A0
:1034C0007300000020202020202020202020202009
:1034D00020202020000000002020202057454C43C1
:1034E0004F4D450025732025732025730A000000E9
:1034F000CF307A1D3C9BFFF7A1FA8020FFF736FD05
:10350000AFF24000FFF772FD8020FFF72FFDE54886
:10351000FFF76CFDC020FFF729FDAFF25800FFF761
:1035200065FDC020FFF722FDAFF25400FFF75EFDFE
:103530003C987B1D0090AFF25401DA48389A103065
:10354000FFF77CFAD7490020103101F132020B5C01
:103550001354401C3228FAD9BCE0607A012809D003
:103560002DA9D148FEF79EFC0028607A58D001288A
:103570007DD0DAE0CC490022C91FCC48FDF70DFD13
:10358000C9490022091FC948FDF7E0FCC648C01F11
:103590008178009143780278AFF2EC011230FFF7A6
:1035A0004DFAC1490DF1AB000B313890FCF7EEFD3F
:1035B00022AFAFF2F801BB487A1D3D9BFFF73EFA00
:1035C0008020FFF7D3FCAFF20410FFF70FFD80203F
:1035D000FFF7CCFCB348FFF709FDC020FFF7C6FC9E
:1035E000AFF22010FFF702FDC020FFF7BFFCAFF2E3
:1035F0001810FFF7FBFC3D987B1D0090AFF21C11EB
:10360000A848389A1030FFF719FAA649002010315F
:1036100001F132020B5C1354401C3228FAD959E0F4
:103620000128A6D1A0490022C91FA048FDF7B5FC7A
:103630009D490022091F9D48FDF788FC9A48C01F3C
:103640008178009143780278AFF29C111230FFF735
:10365000F5F995490DF1D7000B310746FCF796FDBA
:103660000AF10502AFF2AC118E483E9B00E03DE04E
:10367000FFF7E4F98020FFF779FCAFF2B810FFF70D
:10368000B5FC8020FFF772FC8648FFF7AFFCC02036
:10369000FFF76CFCAFF2D410FFF7A8FCC020FFF7D7
:1036A00065FCAFF2CC10FFF7A1FC3E980AF10503D0
:1036B0003A46AFF2D01100907A481030FFF7BEF9C9
:1036C00078490020103101F132020B5C1354401C88
:1036D0003228FAD97349642342313222A1F1910090
:1036E000FEF7E2F9657200F0F9F81EE065728020DD
:1036F000FFF73CFCAFF23420FFF778FC8020FFF7A7
:1037000035FC6BA0FFF772FCFFF772FBC020FFF7E0
:103710002DFCAFF25020FFF769FC6248CF38FDF76F
:10372000FDFF6248AC30FEF71CF85F48007808B92E
:1037300084F809800120FCF75DFD00F0F5F82070A9
:1037400060B1207950B959486C30FDF7E7FF01228C
:1037500004215B48FCF768FE84F80480E178207857
:10376000014304D184F8038084F80580257118B1E1
:103770006070FFF795FBA070E07801287FF453ADEF
:1037800060780B281AD160790128F7D16571E0794A
:1037900008B1401EE071C0B2014601E03554401C42
:1037A0000E28FBDD4431C8B240F08000FFF7DEFB9D
:1037B00044A0FFF71BFCE0780128DFD16078617935
:1037C0000C2817D00129D9D165710A2817D00128F2
:1037D00015D0022813D0032811D004280FD00528B3
:1037E0000DD006280BD0072809D0082807D00928B3
:1037F00005D025E00129C1D184F80880E4E70A2139
:10380000B0FBF1F201FB1201E0793154401CC0B26F
:10381000E071012805D1C020FFF7A8FB2AA0FFF71F
:10382000E5FBE0794330C0B240F08000FFF79EFB3B
:10383000E079304410F8010CFFF732FBFFF7B6FBDC
:10384000207A01289AD12572E079A179E571884220
:1038500007D000F0BFF900203554401C0E28FBDDD6
:10386000E1E4002719E01048F15D401DC05D884289
:1038700007D000F0AFF900203554401C0E28FBDDC6
:103880006427A079401E874206D100F02DF9002060
:103890003554401C0E28FBDD7F1CA079401E87425A
:1038A000DEDCE0E747020020110000208C00002051
:1038B00020556E646566696E6564204361726400BC
:1038C000000C01402020000050573A2020202020EA
:1038D00020202020202020202020000010B50F488C
:1038E000FDF71CFF0E4C00224FF400612046FCF750
:1038F0009BFD0A484038FDF711FF012204212046B4
:10390000FCF792FD0020054A0146C0321154401CCC
:103910000E28FBDD0348C17110BD000078010020B6
:10392000000C0140000000202DE9F05FDFF8A8B195
:103930004FF4805A002251465846FCF775FD674EF9
:10394000012240213046FCF76FFD012280213046E4
:10395000FCF76AFD0122170239463046FCF764FD88
:1039600071153046FCF754FD00245D4D00287DD0D4
:10397000DFF8708139464046FCF74AFD002876D0D2
:10398000F1144046FCF744FD002871D00122514655
:103990005846FCF749FD002240213046FCF744FD23
:1039A000012280213046FCF73FFD01223946304696
:1039B000FCF73AFD71153046FCF72AFD00286ED061
:1039C000B946394647464046FCF722FD002869D0F3
:1039D000F114B8463846FCF71BFD002865D00122DB
:1039E00011035846FCF720FD012240213046FCF728
:1039F0001BFD002280213046FCF716FD01224F46B8
:103A000049463046FCF710FD4FF4007A51463046E7
:103A1000FCF7FEFC68B339464046FCF7F9FC48B3B6
:103A20004FF4006949464046FCF7F2FC78B30122A6
:103A300011035846FCF7F8FC012240213046FCF700
:103A4000F3FC012280213046FCF7EEFC00223946CF
:103A50003046FCF7E9FC51463046FCF7D9FC80B310
:103A6000394646464046FCF7D3FC04E00CE010E043
:103A700012E01DE01FE040B349463046FCF7C8FCA9
:103A800030B30020BDE8F09FEC700120FAE715E0AC
:103A900005E0EC700220F5E7EC700320F2E7EC7033
:103AA0000420EFE7EC700520ECE7EC700620E9E776
:103AB000EC700720E6E7EC700820E3E7EC700920E3
:103AC000E0E7FFE7EC700B20DCE7EC700A20D9E7B9
:103AD000EC700C20D6E70000000C01400010014003
:103AE000000000200008014038B5244C00224FF4AB
:103AF00000612046FCF798FC8020FFF737FA20A0F1
:103B0000FFF774FA8020FFF731FA22A0FFF76EFA70
:103B1000C020FFF72BFA1AA0FFF768FA0122042150
:103B20002046FCF781FC2048FDF7F8FD1E48403890
:103B3000FDF7F4FD1C4800221C49EC38FDF72DFA76
:103B40001A488178009143780278174818A1DF302D
:103B5000FEF774FF144A0020DF3202F13201135CD9
:103B60000B54401C3228FAD901B01949BDE8304045
:103B700064233222A1F19100FDF796BF000C0140B1
:103B80002020202020202020202020202020202035
:103B900000000000436F727265637420506173739C
:103BA000776F726400000000780100200A00002096
:103BB0002532642F2532642F25326420436F7272C0
:103BC00065637420506173776F72640A00000000AF
:103BD0008902002038B5274C0122D1022046FCF78B
:103BE00023FC8020FFF7C2F923A0FFF7FFF9802014
:103BF000FFF7BCF925A0FFF7F9F9C020FFF7B6F9E8
:103C00001DA0FFF7F3F92548FDF788FD234840384C
:103C1000FDF784FD012204212046FCF705FC00226B
:103C20001F492048FDF7B9F91D490022C91C1D484C
:103C3000FDF78CF91A48817800914378027817488B
:103C400019A19F30FEF7FAFE144A00209F3202F1BC
:103C50003201135C0B54401C3228FAD901B00F49D1
:103C600064233222BDE83040D131A1F19100FDF74B
:103C70001BBF0000000C014020202020202020201D
:103C80002020202020202020000000002057726FDC
:103C90006E672050617373776F726400B801002003
:103CA0000A0000208C0000202532642F2532642F6A
:103CB0002532642057726F6E6720506173776F7280
:103CC000640A00000000000000000000010203047C
:103CD000060708090000000001020304FC3C00087C
:103CE0000000002038000000842A0008343D00084D
:103CF0003800002088060000942A00080000000117
:103D000000000600000100000000000000000000AC
:103D10000000020508000906000000000000000085
:103D20000000000001000000100000000000000082
:043D30000024F40077
:0400000508000131BD
:00000001FF
